{
  "contractName": "KeyValueStore",
  "abi": [
    {
      "inputs": [
        {
          "internalType": "address",
          "name": "",
          "type": "address"
        }
      ],
      "name": "map",
      "outputs": [
        {
          "internalType": "string",
          "name": "id",
          "type": "string"
        },
        {
          "internalType": "bytes",
          "name": "cipher",
          "type": "bytes"
        },
        {
          "internalType": "bytes",
          "name": "iv",
          "type": "bytes"
        }
      ],
      "stateMutability": "view",
      "type": "function",
      "constant": true
    },
    {
      "stateMutability": "payable",
      "type": "receive",
      "payable": true
    },
    {
      "inputs": [
        {
          "internalType": "bytes",
          "name": "cipher",
          "type": "bytes"
        },
        {
          "internalType": "bytes",
          "name": "iv",
          "type": "bytes"
        },
        {
          "internalType": "address",
          "name": "addr",
          "type": "address"
        },
        {
          "internalType": "string",
          "name": "id",
          "type": "string"
        }
      ],
      "name": "Write",
      "outputs": [],
      "stateMutability": "nonpayable",
      "type": "function"
    },
    {
      "inputs": [
        {
          "internalType": "address",
          "name": "addr",
          "type": "address"
        }
      ],
      "name": "Read",
      "outputs": [
        {
          "internalType": "bytes",
          "name": "",
          "type": "bytes"
        },
        {
          "internalType": "bytes",
          "name": "",
          "type": "bytes"
        }
      ],
      "stateMutability": "view",
      "type": "function",
      "constant": true
    },
    {
      "inputs": [
        {
          "internalType": "address",
          "name": "addr",
          "type": "address"
        }
      ],
      "name": "Delete",
      "outputs": [],
      "stateMutability": "nonpayable",
      "type": "function"
    },
    {
      "inputs": [
        {
          "internalType": "address payable",
          "name": "to",
          "type": "address"
        }
      ],
      "name": "sendEther",
      "outputs": [],
      "stateMutability": "payable",
      "type": "function",
      "payable": true
    }
  ],
  "bytecode": "0x608060405234801561001057600080fd5b50610efd806100206000396000f3fe60806040526004361061004e5760003560e01c80630a947e681461005a57806348c981e21461027057806379be02af146102b4578063b721ef6e146103ea578063d03a4dcd1461058c57610055565b3661005557005b600080fd5b34801561006657600080fd5b5061026e6004803603608081101561007d57600080fd5b810190808035906020019064010000000081111561009a57600080fd5b8201836020820111156100ac57600080fd5b803590602001918460018302840111640100000000831117156100ce57600080fd5b91908080601f016020809104026020016040519081016040528093929190818152602001838380828437600081840152601f19601f8201169050808301925050505050505091929192908035906020019064010000000081111561013157600080fd5b82018360208201111561014357600080fd5b8035906020019184600183028401116401000000008311171561016557600080fd5b91908080601f016020809104026020016040519081016040528093929190818152602001838380828437600081840152601f19601f820116905080830192505050505050509192919290803573ffffffffffffffffffffffffffffffffffffffff169060200190929190803590602001906401000000008111156101e857600080fd5b8201836020820111156101fa57600080fd5b8035906020019184600183028401116401000000008311171561021c57600080fd5b91908080601f016020809104026020016040519081016040528093929190818152602001838380828437600081840152601f19601f8201169050808301925050505050505091929192905050506105dd565b005b6102b26004803603602081101561028657600080fd5b81019080803573ffffffffffffffffffffffffffffffffffffffff1690602001909291905050506106a0565b005b3480156102c057600080fd5b50610303600480360360208110156102d757600080fd5b81019080803573ffffffffffffffffffffffffffffffffffffffff169060200190929190505050610723565b604051808060200180602001838103835285818151815260200191508051906020019080838360005b8381101561034757808201518184015260208101905061032c565b50505050905090810190601f1680156103745780820380516001836020036101000a031916815260200191505b50838103825284818151815260200191508051906020019080838360005b838110156103ad578082015181840152602081019050610392565b50505050905090810190601f1680156103da5780820380516001836020036101000a031916815260200191505b5094505050505060405180910390f35b3480156103f657600080fd5b506104396004803603602081101561040d57600080fd5b81019080803573ffffffffffffffffffffffffffffffffffffffff169060200190929190505050610a40565b60405180806020018060200180602001848103845287818151815260200191508051906020019080838360005b83811015610481578082015181840152602081019050610466565b50505050905090810190601f1680156104ae5780820380516001836020036101000a031916815260200191505b50848103835286818151815260200191508051906020019080838360005b838110156104e75780820151818401526020810190506104cc565b50505050905090810190601f1680156105145780820380516001836020036101000a031916815260200191505b50848103825285818151815260200191508051906020019080838360005b8381101561054d578082015181840152602081019050610532565b50505050905090810190601f16801561057a5780820380516001836020036101000a031916815260200191505b50965050505050505060405180910390f35b34801561059857600080fd5b506105db600480360360208110156105af57600080fd5b81019080803573ffffffffffffffffffffffffffffffffffffffff169060200190929190505050610c32565b005b6105e5610cf1565b818160000181905250848160200181905250838160400181905250806000808573ffffffffffffffffffffffffffffffffffffffff1673ffffffffffffffffffffffffffffffffffffffff168152602001908152602001600020600082015181600001908051906020019061065b929190610d12565b506020820151816001019080519060200190610678929190610d92565b506040820151816002019080519060200190610695929190610d92565b509050505050505050565b34471015610716576040517f08c379a00000000000000000000000000000000000000000000000000000000081526004018080602001828103825260148152602001807f496e73756666696369656e742062616c616e636500000000000000000000000081525060200191505060405180910390fd5b6107208134610ca6565b50565b60608060606000808573ffffffffffffffffffffffffffffffffffffffff1673ffffffffffffffffffffffffffffffffffffffff1681526020019081526020016000206000018054600181600116156101000203166002900480601f0160208091040260200160405190810160405280929190818152602001828054600181600116156101000203166002900480156107fd5780601f106107d2576101008083540402835291602001916107fd565b820191906000526020600020905b8154815290600101906020018083116107e057829003601f168201915b5050505050905060008151141561087c576040517f08c379a000000000000000000000000000000000000000000000000000000000815260040180806020018281038252601a8152602001807f4e6f20646973636f76657279206f626a65637420666f756e642e00000000000081525060200191505060405180910390fd5b6000808573ffffffffffffffffffffffffffffffffffffffff1673ffffffffffffffffffffffffffffffffffffffff1681526020019081526020016000206001016000808673ffffffffffffffffffffffffffffffffffffffff1673ffffffffffffffffffffffffffffffffffffffff168152602001908152602001600020600201818054600181600116156101000203166002900480601f0160208091040260200160405190810160405280929190818152602001828054600181600116156101000203166002900480156109935780601f1061096857610100808354040283529160200191610993565b820191906000526020600020905b81548152906001019060200180831161097657829003601f168201915b50505050509150808054600181600116156101000203166002900480601f016020809104026020016040519081016040528092919081815260200182805460018160011615610100020316600290048015610a2f5780601f10610a0457610100808354040283529160200191610a2f565b820191906000526020600020905b815481529060010190602001808311610a1257829003601f168201915b505050505090509250925050915091565b6000602052806000526040600020600091509050806000018054600181600116156101000203166002900480601f016020809104026020016040519081016040528092919081815260200182805460018160011615610100020316600290048015610aec5780601f10610ac157610100808354040283529160200191610aec565b820191906000526020600020905b815481529060010190602001808311610acf57829003601f168201915b505050505090806001018054600181600116156101000203166002900480601f016020809104026020016040519081016040528092919081815260200182805460018160011615610100020316600290048015610b8a5780601f10610b5f57610100808354040283529160200191610b8a565b820191906000526020600020905b815481529060010190602001808311610b6d57829003601f168201915b505050505090806002018054600181600116156101000203166002900480601f016020809104026020016040519081016040528092919081815260200182805460018160011615610100020316600290048015610c285780601f10610bfd57610100808354040283529160200191610c28565b820191906000526020600020905b815481529060010190602001808311610c0b57829003601f168201915b5050505050905083565b6000808273ffffffffffffffffffffffffffffffffffffffff1673ffffffffffffffffffffffffffffffffffffffff16815260200190815260200160002060008082016000610c819190610e12565b600182016000610c919190610e5a565b600282016000610ca19190610e5a565b505050565b8173ffffffffffffffffffffffffffffffffffffffff166108fc829081150290604051600060405180830381858888f19350505050158015610cec573d6000803e3d6000fd5b505050565b60405180606001604052806060815260200160608152602001606081525090565b828054600181600116156101000203166002900490600052602060002090601f016020900481019282601f10610d5357805160ff1916838001178555610d81565b82800160010185558215610d81579182015b82811115610d80578251825591602001919060010190610d65565b5b509050610d8e9190610ea2565b5090565b828054600181600116156101000203166002900490600052602060002090601f016020900481019282601f10610dd357805160ff1916838001178555610e01565b82800160010185558215610e01579182015b82811115610e00578251825591602001919060010190610de5565b5b509050610e0e9190610ea2565b5090565b50805460018160011615610100020316600290046000825580601f10610e385750610e57565b601f016020900490600052602060002090810190610e569190610ea2565b5b50565b50805460018160011615610100020316600290046000825580601f10610e805750610e9f565b601f016020900490600052602060002090810190610e9e9190610ea2565b5b50565b610ec491905b80821115610ec0576000816000905550600101610ea8565b5090565b9056fea26469706673582212202a26c16b8f511fb0c9e0b8ce0d0b82f52d4b03493195950b4b34cc59eed4dfdd64736f6c63430006000033",
  "source": "// SPDX-License-Identifier: MIT\r\n\r\npragma solidity >=0.6.0 <0.9.0;\r\n\r\ncontract KeyValueStore {\r\n    // A discovery object holding a cipher and id of the user making transaction.\r\n    // {id_{A}, c_{AB}}\r\n    struct Discovery {\r\n        string id;\r\n        bytes cipher;\r\n        bytes iv;\r\n    }\r\n    \r\n    // A key-to-value map of the pairs (addr_{AB}, {id_{A}, c_{AB}})\r\n    // addr_{AB} is the locally derived from the key loc_{AB}\r\n    mapping(address => Discovery) public map;\r\n\r\n    function Write(bytes memory cipher, bytes memory iv, address addr, string memory id) public {\r\n        Discovery memory discovery; \r\n        discovery.id = id;\r\n        discovery.cipher = cipher;\r\n        discovery.iv = iv;\r\n        map[addr] = discovery;\r\n    }\r\n\r\n    function Read(address addr) public view returns(bytes memory, bytes memory){\r\n        bytes memory stored_id = bytes(map[addr].id);\r\n        require(stored_id.length != 0, \"No discovery object found.\"); \r\n        return (map[addr].cipher, map[addr].iv);\r\n    }\r\n\r\n    function Delete(address addr) public {\r\n        delete map[addr];\r\n    }\r\n\r\n    // Receive Ether in this contract\r\n    receive() external payable {}\r\n\r\n    // Send Ether to the specified address\r\n    function sendEther(address payable to) public payable {\r\n        require(address(this).balance >= msg.value, \"Insufficient balance\");\r\n        _sendEther(to, msg.value); \r\n    }\r\n\r\n    function _sendEther(address payable to, uint256 amount) private {\r\n        to.transfer(amount);\r\n    }\r\n}",
  "sourcePath": "C:\\Users\\Xincheng\\Desktop\\COMP0064 MSc Information Security Dissertation\\arke_application\\store\\contracts\\KeyValueStore.sol",
  "compiler": {
    "name": "solc",
    "version": "0.6.0+commit.26b70077.Emscripten.clang"
  },
  "schemaVersion": "3.4.14",
  "updatedAt": "2023-08-07T22:28:34.242Z",
  "networkType": "ethereum",
  "devdoc": {
    "methods": {}
  },
  "userdoc": {
    "methods": {}
  }
}