{
  "contractName": "KeyValueStore",
  "abi": [
    {
      "anonymous": false,
      "inputs": [
        {
          "indexed": false,
          "internalType": "string[]",
          "name": "id",
          "type": "string[]"
        }
      ],
      "name": "unread",
      "type": "event"
    },
    {
      "inputs": [
        {
          "internalType": "address",
          "name": "",
          "type": "address"
        }
      ],
      "name": "map",
      "outputs": [
        {
          "internalType": "bytes",
          "name": "cipher",
          "type": "bytes"
        },
        {
          "internalType": "bytes",
          "name": "iv",
          "type": "bytes"
        }
      ],
      "stateMutability": "view",
      "type": "function",
      "constant": true
    },
    {
      "stateMutability": "payable",
      "type": "receive",
      "payable": true
    },
    {
      "inputs": [
        {
          "internalType": "bytes",
          "name": "cipher",
          "type": "bytes"
        },
        {
          "internalType": "bytes",
          "name": "iv",
          "type": "bytes"
        },
        {
          "internalType": "address",
          "name": "addr",
          "type": "address"
        },
        {
          "internalType": "string[]",
          "name": "id",
          "type": "string[]"
        }
      ],
      "name": "Write",
      "outputs": [],
      "stateMutability": "nonpayable",
      "type": "function"
    },
    {
      "inputs": [
        {
          "internalType": "address",
          "name": "addr",
          "type": "address"
        }
      ],
      "name": "Read",
      "outputs": [
        {
          "internalType": "bytes",
          "name": "",
          "type": "bytes"
        },
        {
          "internalType": "bytes",
          "name": "",
          "type": "bytes"
        }
      ],
      "stateMutability": "view",
      "type": "function",
      "constant": true
    },
    {
      "inputs": [
        {
          "internalType": "address",
          "name": "addr",
          "type": "address"
        }
      ],
      "name": "Delete",
      "outputs": [],
      "stateMutability": "nonpayable",
      "type": "function"
    },
    {
      "inputs": [
        {
          "internalType": "address payable",
          "name": "to",
          "type": "address"
        }
      ],
      "name": "sendEther",
      "outputs": [],
      "stateMutability": "payable",
      "type": "function",
      "payable": true
    }
  ],
  "bytecode": "0x608060405234801561001057600080fd5b506112b9806100206000396000f3fe60806040526004361061004e5760003560e01c806348c981e21461005a57806379be02af14610076578063b721ef6e146100b4578063c118e1c7146100f2578063d03a4dcd1461011b57610055565b3661005557005b600080fd5b610074600480360381019061006f91906107d9565b610144565b005b34801561008257600080fd5b5061009d60048036038101906100989190610844565b6101d1565b6040516100ab92919061090a565b60405180910390f35b3480156100c057600080fd5b506100db60048036038101906100d69190610844565b610377565b6040516100e992919061090a565b60405180910390f35b3480156100fe57600080fd5b5061011960048036038101906101149190610bfd565b6104ab565b005b34801561012757600080fd5b50610142600480360381019061013d9190610844565b610597565b005b34471015610187576040517f08c379a000000000000000000000000000000000000000000000000000000000815260040161017e90610d15565b60405180910390fd5b8073ffffffffffffffffffffffffffffffffffffffff166108fc349081150290604051600060405180830381858888f193505050501580156101cd573d6000803e3d6000fd5b5050565b6060806000808473ffffffffffffffffffffffffffffffffffffffff1673ffffffffffffffffffffffffffffffffffffffff1681526020019081526020016000206001016000808573ffffffffffffffffffffffffffffffffffffffff1673ffffffffffffffffffffffffffffffffffffffff16815260200190815260200160002060020181805461026290610d64565b80601f016020809104026020016040519081016040528092919081815260200182805461028e90610d64565b80156102db5780601f106102b0576101008083540402835291602001916102db565b820191906000526020600020905b8154815290600101906020018083116102be57829003601f168201915b505050505091508080546102ee90610d64565b80601f016020809104026020016040519081016040528092919081815260200182805461031a90610d64565b80156103675780601f1061033c57610100808354040283529160200191610367565b820191906000526020600020905b81548152906001019060200180831161034a57829003601f168201915b5050505050905091509150915091565b600060205280600052604060002060009150905080600101805461039a90610d64565b80601f01602080910402602001604051908101604052809291908181526020018280546103c690610d64565b80156104135780601f106103e857610100808354040283529160200191610413565b820191906000526020600020905b8154815290600101906020018083116103f657829003601f168201915b50505050509080600201805461042890610d64565b80601f016020809104026020016040519081016040528092919081815260200182805461045490610d64565b80156104a15780601f10610476576101008083540402835291602001916104a1565b820191906000526020600020905b81548152906001019060200180831161048457829003601f168201915b5050505050905082565b6104b361060b565b818160000181905250848160200181905250838160400181905250806000808573ffffffffffffffffffffffffffffffffffffffff1673ffffffffffffffffffffffffffffffffffffffff168152602001908152602001600020600082015181600001908051906020019061052992919061062c565b50602082015181600101908161053f9190610f4b565b5060408201518160020190816105559190610f4b565b509050507fc2e15edee942498cd4f757ff8f5cf6dfd97c9d6325870dc92e37b0bf9dcd73fe826040516105889190611134565b60405180910390a15050505050565b6000808273ffffffffffffffffffffffffffffffffffffffff1673ffffffffffffffffffffffffffffffffffffffff168152602001908152602001600020600080820160006105e69190610685565b6001820160006105f691906106a6565b60028201600061060691906106a6565b505050565b60405180606001604052806060815260200160608152602001606081525090565b828054828255906000526020600020908101928215610674579160200282015b8281111561067357825182908161066391906111b1565b509160200191906001019061064c565b5b50905061068191906106e6565b5090565b50805460008255906000526020600020908101906106a391906106e6565b50565b5080546106b290610d64565b6000825580601f106106c457506106e3565b601f0160209004906000526020600020908101906106e2919061070a565b5b50565b5b8082111561070657600081816106fd9190610727565b506001016106e7565b5090565b5b8082111561072357600081600090555060010161070b565b5090565b50805461073390610d64565b6000825580601f106107455750610764565b601f016020900490600052602060002090810190610763919061070a565b5b50565b6000604051905090565b600080fd5b600080fd5b600073ffffffffffffffffffffffffffffffffffffffff82169050919050565b60006107a68261077b565b9050919050565b6107b68161079b565b81146107c157600080fd5b50565b6000813590506107d3816107ad565b92915050565b6000602082840312156107ef576107ee610771565b5b60006107fd848285016107c4565b91505092915050565b60006108118261077b565b9050919050565b61082181610806565b811461082c57600080fd5b50565b60008135905061083e81610818565b92915050565b60006020828403121561085a57610859610771565b5b60006108688482850161082f565b91505092915050565b600081519050919050565b600082825260208201905092915050565b60005b838110156108ab578082015181840152602081019050610890565b838111156108ba576000848401525b50505050565b6000601f19601f8301169050919050565b60006108dc82610871565b6108e6818561087c565b93506108f681856020860161088d565b6108ff816108c0565b840191505092915050565b6000604082019050818103600083015261092481856108d1565b9050818103602083015261093881846108d1565b90509392505050565b600080fd5b600080fd5b7f4e487b7100000000000000000000000000000000000000000000000000000000600052604160045260246000fd5b610983826108c0565b810181811067ffffffffffffffff821117156109a2576109a161094b565b5b80604052505050565b60006109b5610767565b90506109c1828261097a565b919050565b600067ffffffffffffffff8211156109e1576109e061094b565b5b6109ea826108c0565b9050602081019050919050565b82818337600083830152505050565b6000610a19610a14846109c6565b6109ab565b905082815260208101848484011115610a3557610a34610946565b5b610a408482856109f7565b509392505050565b600082601f830112610a5d57610a5c610941565b5b8135610a6d848260208601610a06565b91505092915050565b600067ffffffffffffffff821115610a9157610a9061094b565b5b602082029050602081019050919050565b600080fd5b600067ffffffffffffffff821115610ac257610ac161094b565b5b610acb826108c0565b9050602081019050919050565b6000610aeb610ae684610aa7565b6109ab565b905082815260208101848484011115610b0757610b06610946565b5b610b128482856109f7565b509392505050565b600082601f830112610b2f57610b2e610941565b5b8135610b3f848260208601610ad8565b91505092915050565b6000610b5b610b5684610a76565b6109ab565b90508083825260208201905060208402830185811115610b7e57610b7d610aa2565b5b835b81811015610bc557803567ffffffffffffffff811115610ba357610ba2610941565b5b808601610bb08982610b1a565b85526020850194505050602081019050610b80565b5050509392505050565b600082601f830112610be457610be3610941565b5b8135610bf4848260208601610b48565b91505092915050565b60008060008060808587031215610c1757610c16610771565b5b600085013567ffffffffffffffff811115610c3557610c34610776565b5b610c4187828801610a48565b945050602085013567ffffffffffffffff811115610c6257610c61610776565b5b610c6e87828801610a48565b9350506040610c7f8782880161082f565b925050606085013567ffffffffffffffff811115610ca057610c9f610776565b5b610cac87828801610bcf565b91505092959194509250565b600082825260208201905092915050565b7f496e73756666696369656e742062616c616e6365000000000000000000000000600082015250565b6000610cff601483610cb8565b9150610d0a82610cc9565b602082019050919050565b60006020820190508181036000830152610d2e81610cf2565b9050919050565b7f4e487b7100000000000000000000000000000000000000000000000000000000600052602260045260246000fd5b60006002820490506001821680610d7c57607f821691505b602082108103610d8f57610d8e610d35565b5b50919050565b60008190508160005260206000209050919050565b60006020601f8301049050919050565b600082821b905092915050565b600060088302610df77fffffffffffffffffffffffffffffffffffffffffffffffffffffffffffffffff82610dba565b610e018683610dba565b95508019841693508086168417925050509392505050565b6000819050919050565b6000819050919050565b6000610e48610e43610e3e84610e19565b610e23565b610e19565b9050919050565b6000819050919050565b610e6283610e2d565b610e76610e6e82610e4f565b848454610dc7565b825550505050565b600090565b610e8b610e7e565b610e96818484610e59565b505050565b5b81811015610eba57610eaf600082610e83565b600181019050610e9c565b5050565b601f821115610eff57610ed081610d95565b610ed984610daa565b81016020851015610ee8578190505b610efc610ef485610daa565b830182610e9b565b50505b505050565b600082821c905092915050565b6000610f2260001984600802610f04565b1980831691505092915050565b6000610f3b8383610f11565b9150826002028217905092915050565b610f5482610871565b67ffffffffffffffff811115610f6d57610f6c61094b565b5b610f778254610d64565b610f82828285610ebe565b600060209050601f831160018114610fb55760008415610fa3578287015190505b610fad8582610f2f565b865550611015565b601f198416610fc386610d95565b60005b82811015610feb57848901518255600182019150602085019450602081019050610fc6565b868310156110085784890151611004601f891682610f11565b8355505b6001600288020188555050505b505050505050565b600081519050919050565b600082825260208201905092915050565b6000819050602082019050919050565b600081519050919050565b600082825260208201905092915050565b600061107082611049565b61107a8185611054565b935061108a81856020860161088d565b611093816108c0565b840191505092915050565b60006110aa8383611065565b905092915050565b6000602082019050919050565b60006110ca8261101d565b6110d48185611028565b9350836020820285016110e685611039565b8060005b858110156111225784840389528151611103858261109e565b945061110e836110b2565b925060208a019950506001810190506110ea565b50829750879550505050505092915050565b6000602082019050818103600083015261114e81846110bf565b905092915050565b60008190508160005260206000209050919050565b601f8211156111ac5761117d81611156565b61118684610daa565b81016020851015611195578190505b6111a96111a185610daa565b830182610e9b565b50505b505050565b6111ba82611049565b67ffffffffffffffff8111156111d3576111d261094b565b5b6111dd8254610d64565b6111e882828561116b565b600060209050601f83116001811461121b5760008415611209578287015190505b6112138582610f2f565b86555061127b565b601f19841661122986611156565b60005b828110156112515784890151825560018201915060208501945060208101905061122c565b8683101561126e578489015161126a601f891682610f11565b8355505b6001600288020188555050505b50505050505056fea264697066735822122090e291f7de9d6006f6d8ab62e30b34cc37a731a42110d25da9e4b873425fb95964736f6c634300080f0033",
  "immutableReferences": {},
  "source": "// SPDX-License-Identifier: MIT\r\n// ---------------------------------------\r\n// File: KeyValueStore.sol\r\n// Date: 01 Sept 2023\r\n// Description: Ethreum Contract\r\n//              Private chat and ether transfer (Storage authority-side)\r\n// ---------------------------------------\r\npragma solidity >=0.8.0 <0.9.0;\r\n\r\ncontract KeyValueStore {\r\n    event unread(string[] id);\r\n\r\n    struct Discovery {\r\n        string[] id;\r\n        bytes cipher;\r\n        bytes iv;\r\n    }\r\n    mapping(address => Discovery) public map;\r\n\r\n    function Write(bytes memory cipher, bytes memory iv, address addr, string[] memory id) public {\r\n        Discovery memory discovery; \r\n        discovery.id = id;\r\n        discovery.cipher = cipher;\r\n        discovery.iv = iv;\r\n        map[addr] = discovery;\r\n        emit unread(id);\r\n    }\r\n\r\n    function Read(address addr) public view returns(bytes memory, bytes memory){\r\n        return (map[addr].cipher, map[addr].iv);\r\n    }\r\n\r\n    function Delete(address addr) public {\r\n        delete map[addr];\r\n    }\r\n\r\n    // Receive Ether in this contract\r\n    receive() external payable {}\r\n\r\n    // Send Ether to the specified address\r\n    function sendEther(address payable to) public payable {\r\n        require(address(this).balance >= msg.value, \"Insufficient balance\");\r\n        to.transfer(msg.value); \r\n    }\r\n}",
  "sourcePath": "C:\\Users\\Xincheng\\Desktop\\COMP0064 MSc Information Security Dissertation\\arke_application\\store\\contracts\\KeyValueStore.sol",
  "compiler": {
    "name": "solc",
    "version": "0.8.15+commit.e14f2714.Emscripten.clang"
  },
  "schemaVersion": "3.4.14",
  "updatedAt": "2023-09-10T14:01:49.183Z",
  "networkType": "ethereum",
  "devdoc": {
    "kind": "dev",
    "methods": {},
    "version": 1
  },
  "userdoc": {
    "kind": "user",
    "methods": {},
    "version": 1
  }
}