{
  "contractName": "KeyValueStore",
  "abi": [
    {
      "constant": true,
      "inputs": [
        {
          "name": "",
          "type": "address"
        }
      ],
      "name": "map",
      "outputs": [
        {
          "name": "id",
          "type": "string"
        },
        {
          "name": "cipher",
          "type": "bytes"
        }
      ],
      "payable": false,
      "stateMutability": "view",
      "type": "function"
    },
    {
      "constant": false,
      "inputs": [
        {
          "name": "cipher",
          "type": "bytes"
        },
        {
          "name": "addr",
          "type": "address"
        },
        {
          "name": "id",
          "type": "string"
        }
      ],
      "name": "Write",
      "outputs": [],
      "payable": false,
      "stateMutability": "nonpayable",
      "type": "function"
    },
    {
      "constant": true,
      "inputs": [
        {
          "name": "addr",
          "type": "address"
        }
      ],
      "name": "Read",
      "outputs": [
        {
          "name": "",
          "type": "bytes"
        }
      ],
      "payable": false,
      "stateMutability": "view",
      "type": "function"
    },
    {
      "constant": false,
      "inputs": [
        {
          "name": "addr",
          "type": "address"
        }
      ],
      "name": "Delete",
      "outputs": [],
      "payable": false,
      "stateMutability": "nonpayable",
      "type": "function"
    }
  ],
  "bytecode": "0x608060405234801561001057600080fd5b50610abb806100206000396000f3fe60806040526004361061005c576000357c010000000000000000000000000000000000000000000000000000000090048063143c32611461006157806379be02af146101e0578063b721ef6e146102aa578063d03a4dcd146103e0575b600080fd5b34801561006d57600080fd5b506101de6004803603606081101561008457600080fd5b81019080803590602001906401000000008111156100a157600080fd5b8201836020820111156100b357600080fd5b803590602001918460018302840111640100000000831117156100d557600080fd5b91908080601f016020809104026020016040519081016040528093929190818152602001838380828437600081840152601f19601f820116905080830192505050505050509192919290803573ffffffffffffffffffffffffffffffffffffffff1690602001909291908035906020019064010000000081111561015857600080fd5b82018360208201111561016a57600080fd5b8035906020019184600183028401116401000000008311171561018c57600080fd5b91908080601f016020809104026020016040519081016040528093929190818152602001838380828437600081840152601f19601f820116905080830192505050505050509192919290505050610431565b005b3480156101ec57600080fd5b5061022f6004803603602081101561020357600080fd5b81019080803573ffffffffffffffffffffffffffffffffffffffff1690602001909291905050506104cd565b6040518080602001828103825283818151815260200191508051906020019080838360005b8381101561026f578082015181840152602081019050610254565b50505050905090810190601f16801561029c5780820380516001836020036101000a031916815260200191505b509250505060405180910390f35b3480156102b657600080fd5b506102f9600480360360208110156102cd57600080fd5b81019080803573ffffffffffffffffffffffffffffffffffffffff169060200190929190505050610708565b604051808060200180602001838103835285818151815260200191508051906020019080838360005b8381101561033d578082015181840152602081019050610322565b50505050905090810190601f16801561036a5780820380516001836020036101000a031916815260200191505b50838103825284818151815260200191508051906020019080838360005b838110156103a3578082015181840152602081019050610388565b50505050905090810190601f1680156103d05780820380516001836020036101000a031916815260200191505b5094505050505060405180910390f35b3480156103ec57600080fd5b5061042f6004803603602081101561040357600080fd5b81019080803573ffffffffffffffffffffffffffffffffffffffff16906020019092919050505061085c565b005b6104396108c0565b818160000181905250838160200181905250806000808573ffffffffffffffffffffffffffffffffffffffff1673ffffffffffffffffffffffffffffffffffffffff16815260200190815260200160002060008201518160000190805190602001906104a69291906108da565b5060208201518160010190805190602001906104c392919061095a565b5090505050505050565b6060806000808473ffffffffffffffffffffffffffffffffffffffff1673ffffffffffffffffffffffffffffffffffffffff1681526020019081526020016000206000018054600181600116156101000203166002900480601f0160208091040260200160405190810160405280929190818152602001828054600181600116156101000203166002900480156105a55780601f1061057a576101008083540402835291602001916105a5565b820191906000526020600020905b81548152906001019060200180831161058857829003601f168201915b505050505090506000815114151515610626576040517f08c379a000000000000000000000000000000000000000000000000000000000815260040180806020018281038252601a8152602001807f4e6f20646973636f76657279206f626a65637420666f756e642e00000000000081525060200191505060405180910390fd5b6000808473ffffffffffffffffffffffffffffffffffffffff1673ffffffffffffffffffffffffffffffffffffffff1681526020019081526020016000206001018054600181600116156101000203166002900480601f0160208091040260200160405190810160405280929190818152602001828054600181600116156101000203166002900480156106fb5780601f106106d0576101008083540402835291602001916106fb565b820191906000526020600020905b8154815290600101906020018083116106de57829003601f168201915b5050505050915050919050565b6000602052806000526040600020600091509050806000018054600181600116156101000203166002900480601f0160208091040260200160405190810160405280929190818152602001828054600181600116156101000203166002900480156107b45780601f10610789576101008083540402835291602001916107b4565b820191906000526020600020905b81548152906001019060200180831161079757829003601f168201915b505050505090806001018054600181600116156101000203166002900480601f0160208091040260200160405190810160405280929190818152602001828054600181600116156101000203166002900480156108525780601f1061082757610100808354040283529160200191610852565b820191906000526020600020905b81548152906001019060200180831161083557829003601f168201915b5050505050905082565b6000808273ffffffffffffffffffffffffffffffffffffffff1673ffffffffffffffffffffffffffffffffffffffff168152602001908152602001600020600080820160006108ab91906109da565b6001820160006108bb9190610a22565b505050565b604080519081016040528060608152602001606081525090565b828054600181600116156101000203166002900490600052602060002090601f016020900481019282601f1061091b57805160ff1916838001178555610949565b82800160010185558215610949579182015b8281111561094857825182559160200191906001019061092d565b5b5090506109569190610a6a565b5090565b828054600181600116156101000203166002900490600052602060002090601f016020900481019282601f1061099b57805160ff19168380011785556109c9565b828001600101855582156109c9579182015b828111156109c85782518255916020019190600101906109ad565b5b5090506109d69190610a6a565b5090565b50805460018160011615610100020316600290046000825580601f10610a005750610a1f565b601f016020900490600052602060002090810190610a1e9190610a6a565b5b50565b50805460018160011615610100020316600290046000825580601f10610a485750610a67565b601f016020900490600052602060002090810190610a669190610a6a565b5b50565b610a8c91905b80821115610a88576000816000905550600101610a70565b5090565b9056fea165627a7a7230582057739c515f8bd5fd3ca853d0af1fe81cba94bbfe3d495a8dd235a4eae7079a710029",
  "source": "// SPDX-License-Identifier: MIT\r\n\r\npragma solidity >=0.4.22 <0.9.0;\r\n\r\ncontract KeyValueStore {\r\n    // A discovery object holding a cipher and id of the user making transaction.\r\n    // {id_{A}, c_{AB}}\r\n    struct Discovery {\r\n        string id;\r\n        bytes cipher;\r\n    }\r\n    \r\n    // A key-to-value map of the pairs (addr_{AB}, {id_{A}, c_{AB}})\r\n    // addr_{AB} is the locally derived from the key loc_{AB}\r\n    mapping(address => Discovery) public map;\r\n\r\n    function Write(bytes memory cipher, address addr, string memory id) public {\r\n        Discovery memory discovery; \r\n        discovery.id = id;\r\n        discovery.cipher = cipher;\r\n        map[addr] = discovery;\r\n    }\r\n\r\n    function Read(address addr) public view returns(bytes memory){\r\n        bytes memory stored_id = bytes(map[addr].id);\r\n        require(stored_id.length != 0, \"No discovery object found.\");\r\n        return map[addr].cipher;\r\n    }\r\n\r\n    function Delete(address addr) public {\r\n        delete map[addr];\r\n    }\r\n}",
  "sourcePath": "C:\\Users\\Xincheng\\Desktop\\COMP0064 MSc Information Security Dissertation\\arke_new\\store\\contracts\\KeyValueStore.sol",
  "compiler": {
    "name": "solc",
    "version": "0.5.1+commit.c8a2cb62.Emscripten.clang"
  },
  "schemaVersion": "3.4.14",
  "updatedAt": "2023-07-08T22:13:37.411Z",
  "networkType": "ethereum",
  "devdoc": {
    "methods": {}
  },
  "userdoc": {
    "methods": {}
  }
}