{
  "contractName": "KeyValueStore",
  "abi": [
    {
      "constant": true,
      "inputs": [
        {
          "name": "",
          "type": "address"
        }
      ],
      "name": "map",
      "outputs": [
        {
          "name": "id",
          "type": "string"
        },
        {
          "name": "cipher",
          "type": "bytes"
        },
        {
          "name": "iv",
          "type": "bytes"
        }
      ],
      "payable": false,
      "stateMutability": "view",
      "type": "function"
    },
    {
      "constant": false,
      "inputs": [
        {
          "name": "cipher",
          "type": "bytes"
        },
        {
          "name": "iv",
          "type": "bytes"
        },
        {
          "name": "addr",
          "type": "address"
        },
        {
          "name": "id",
          "type": "string"
        }
      ],
      "name": "Write",
      "outputs": [],
      "payable": false,
      "stateMutability": "nonpayable",
      "type": "function"
    },
    {
      "constant": true,
      "inputs": [
        {
          "name": "addr",
          "type": "address"
        }
      ],
      "name": "Read",
      "outputs": [
        {
          "name": "",
          "type": "bytes"
        },
        {
          "name": "",
          "type": "bytes"
        }
      ],
      "payable": false,
      "stateMutability": "view",
      "type": "function"
    },
    {
      "constant": false,
      "inputs": [
        {
          "name": "addr",
          "type": "address"
        }
      ],
      "name": "Delete",
      "outputs": [],
      "payable": false,
      "stateMutability": "nonpayable",
      "type": "function"
    }
  ],
  "bytecode": "0x608060405234801561001057600080fd5b50610deb806100206000396000f3fe60806040526004361061005c576000357c0100000000000000000000000000000000000000000000000000000000900480630a947e681461006157806379be02af14610277578063b721ef6e146103ad578063d03a4dcd1461054f575b600080fd5b34801561006d57600080fd5b506102756004803603608081101561008457600080fd5b81019080803590602001906401000000008111156100a157600080fd5b8201836020820111156100b357600080fd5b803590602001918460018302840111640100000000831117156100d557600080fd5b91908080601f016020809104026020016040519081016040528093929190818152602001838380828437600081840152601f19601f8201169050808301925050505050505091929192908035906020019064010000000081111561013857600080fd5b82018360208201111561014a57600080fd5b8035906020019184600183028401116401000000008311171561016c57600080fd5b91908080601f016020809104026020016040519081016040528093929190818152602001838380828437600081840152601f19601f820116905080830192505050505050509192919290803573ffffffffffffffffffffffffffffffffffffffff169060200190929190803590602001906401000000008111156101ef57600080fd5b82018360208201111561020157600080fd5b8035906020019184600183028401116401000000008311171561022357600080fd5b91908080601f016020809104026020016040519081016040528093929190818152602001838380828437600081840152601f19601f8201169050808301925050505050505091929192905050506105a0565b005b34801561028357600080fd5b506102c66004803603602081101561029a57600080fd5b81019080803573ffffffffffffffffffffffffffffffffffffffff169060200190929190505050610663565b604051808060200180602001838103835285818151815260200191508051906020019080838360005b8381101561030a5780820151818401526020810190506102ef565b50505050905090810190601f1680156103375780820380516001836020036101000a031916815260200191505b50838103825284818151815260200191508051906020019080838360005b83811015610370578082015181840152602081019050610355565b50505050905090810190601f16801561039d5780820380516001836020036101000a031916815260200191505b5094505050505060405180910390f35b3480156103b957600080fd5b506103fc600480360360208110156103d057600080fd5b81019080803573ffffffffffffffffffffffffffffffffffffffff169060200190929190505050610982565b60405180806020018060200180602001848103845287818151815260200191508051906020019080838360005b83811015610444578082015181840152602081019050610429565b50505050905090810190601f1680156104715780820380516001836020036101000a031916815260200191505b50848103835286818151815260200191508051906020019080838360005b838110156104aa57808201518184015260208101905061048f565b50505050905090810190601f1680156104d75780820380516001836020036101000a031916815260200191505b50848103825285818151815260200191508051906020019080838360005b838110156105105780820151818401526020810190506104f5565b50505050905090810190601f16801561053d5780820380516001836020036101000a031916815260200191505b50965050505050505060405180910390f35b34801561055b57600080fd5b5061059e6004803603602081101561057257600080fd5b81019080803573ffffffffffffffffffffffffffffffffffffffff169060200190929190505050610b74565b005b6105a8610be8565b818160000181905250848160200181905250838160400181905250806000808573ffffffffffffffffffffffffffffffffffffffff1673ffffffffffffffffffffffffffffffffffffffff168152602001908152602001600020600082015181600001908051906020019061061e929190610c0a565b50602082015181600101908051906020019061063b929190610c8a565b506040820151816002019080519060200190610658929190610c8a565b509050505050505050565b60608060606000808573ffffffffffffffffffffffffffffffffffffffff1673ffffffffffffffffffffffffffffffffffffffff1681526020019081526020016000206000018054600181600116156101000203166002900480601f01602080910402602001604051908101604052809291908181526020018280546001816001161561010002031660029004801561073d5780601f106107125761010080835404028352916020019161073d565b820191906000526020600020905b81548152906001019060200180831161072057829003601f168201915b5050505050905060008151141515156107be576040517f08c379a000000000000000000000000000000000000000000000000000000000815260040180806020018281038252601a8152602001807f4e6f20646973636f76657279206f626a65637420666f756e642e00000000000081525060200191505060405180910390fd5b6000808573ffffffffffffffffffffffffffffffffffffffff1673ffffffffffffffffffffffffffffffffffffffff1681526020019081526020016000206001016000808673ffffffffffffffffffffffffffffffffffffffff1673ffffffffffffffffffffffffffffffffffffffff168152602001908152602001600020600201818054600181600116156101000203166002900480601f0160208091040260200160405190810160405280929190818152602001828054600181600116156101000203166002900480156108d55780601f106108aa576101008083540402835291602001916108d5565b820191906000526020600020905b8154815290600101906020018083116108b857829003601f168201915b50505050509150808054600181600116156101000203166002900480601f0160208091040260200160405190810160405280929190818152602001828054600181600116156101000203166002900480156109715780601f1061094657610100808354040283529160200191610971565b820191906000526020600020905b81548152906001019060200180831161095457829003601f168201915b505050505090509250925050915091565b6000602052806000526040600020600091509050806000018054600181600116156101000203166002900480601f016020809104026020016040519081016040528092919081815260200182805460018160011615610100020316600290048015610a2e5780601f10610a0357610100808354040283529160200191610a2e565b820191906000526020600020905b815481529060010190602001808311610a1157829003601f168201915b505050505090806001018054600181600116156101000203166002900480601f016020809104026020016040519081016040528092919081815260200182805460018160011615610100020316600290048015610acc5780601f10610aa157610100808354040283529160200191610acc565b820191906000526020600020905b815481529060010190602001808311610aaf57829003601f168201915b505050505090806002018054600181600116156101000203166002900480601f016020809104026020016040519081016040528092919081815260200182805460018160011615610100020316600290048015610b6a5780601f10610b3f57610100808354040283529160200191610b6a565b820191906000526020600020905b815481529060010190602001808311610b4d57829003601f168201915b5050505050905083565b6000808273ffffffffffffffffffffffffffffffffffffffff1673ffffffffffffffffffffffffffffffffffffffff16815260200190815260200160002060008082016000610bc39190610d0a565b600182016000610bd39190610d52565b600282016000610be39190610d52565b505050565b6060604051908101604052806060815260200160608152602001606081525090565b828054600181600116156101000203166002900490600052602060002090601f016020900481019282601f10610c4b57805160ff1916838001178555610c79565b82800160010185558215610c79579182015b82811115610c78578251825591602001919060010190610c5d565b5b509050610c869190610d9a565b5090565b828054600181600116156101000203166002900490600052602060002090601f016020900481019282601f10610ccb57805160ff1916838001178555610cf9565b82800160010185558215610cf9579182015b82811115610cf8578251825591602001919060010190610cdd565b5b509050610d069190610d9a565b5090565b50805460018160011615610100020316600290046000825580601f10610d305750610d4f565b601f016020900490600052602060002090810190610d4e9190610d9a565b5b50565b50805460018160011615610100020316600290046000825580601f10610d785750610d97565b601f016020900490600052602060002090810190610d969190610d9a565b5b50565b610dbc91905b80821115610db8576000816000905550600101610da0565b5090565b9056fea165627a7a7230582011ebd7301719dc11ba0385f22eeefaa4a4d7ce86e80831a2e6fafaeee5e67eb70029",
  "source": "// SPDX-License-Identifier: MIT\r\n\r\npragma solidity >=0.4.22 <0.9.0;\r\n\r\ncontract KeyValueStore {\r\n    // A discovery object holding a cipher and id of the user making transaction.\r\n    // {id_{A}, c_{AB}}\r\n    struct Discovery {\r\n        string id;\r\n        bytes cipher;\r\n        bytes iv;\r\n    }\r\n    \r\n    // A key-to-value map of the pairs (addr_{AB}, {id_{A}, c_{AB}})\r\n    // addr_{AB} is the locally derived from the key loc_{AB}\r\n    mapping(address => Discovery) public map;\r\n\r\n    function Write(bytes memory cipher, bytes memory iv, address addr, string memory id) public {\r\n        Discovery memory discovery; \r\n        discovery.id = id;\r\n        discovery.cipher = cipher;\r\n        discovery.iv = iv;\r\n        map[addr] = discovery;\r\n    }\r\n\r\n    function Read(address addr) public view returns(bytes memory, bytes memory){\r\n        bytes memory stored_id = bytes(map[addr].id);\r\n        require(stored_id.length != 0, \"No discovery object found.\");\r\n        return (map[addr].cipher, map[addr].iv);\r\n    }\r\n\r\n    function Delete(address addr) public {\r\n        delete map[addr];\r\n    }\r\n}",
  "sourcePath": "C:\\Users\\Xincheng\\Desktop\\COMP0064 MSc Information Security Dissertation\\arke_application\\store\\contracts\\KeyValueStore.sol",
  "compiler": {
    "name": "solc",
    "version": "0.5.1+commit.c8a2cb62.Emscripten.clang"
  },
  "schemaVersion": "3.4.14",
  "updatedAt": "2023-07-15T22:45:16.591Z",
  "networkType": "ethereum",
  "devdoc": {
    "methods": {}
  },
  "userdoc": {
    "methods": {}
  }
}